:10000000CBC03CC6EEC0EDC0DBC6B5C6EAC063C619
:10001000E8C0E7C0E6C0E5C0E4C0E3C0E2C03031FC
:10002000323334353637383941424344454600008F
:10003000000010000000010000100000000100009E
:10004000100000000100001000000001000000008E
:100050000000001912181415BB161117131A40408E
:1000600020200804020277017E0258031206590775
:100070001408110A8410761B661C0D1D5A1E291FB8
:100080007020692172227A236B24732574266C27D1
:1000900075287D29712A792C7B2D7C2E0F3F4530C8
:1000A00016311E32263325342E3536363D373E384E
:1000B0004639523A413B4E3C493D4A3E0E401C4176
:1000C00032422143234424452B4634473348434995
:1000D0003B4A424B4B4C3A4D314E444F4D501551DB
:1000E0002D521B532C543C552A561D572258355916
:1000F0001A5A4C5B5D5C545D5B5E555F618B0561BC
:10010000066204630C6403650B6683670A68016911
:10011000096A786B076C086D106E186F2070287173
:100120003072387340744875507657775F786D60D9
:10013000519113926A9364946795F296F19763983C
:1001400062995FA012BB7C041409110B1F0C270DD0
:100150002F0E7E0F6C1169127D137A146B157416B5
:10016000751772187019711A5A2B4A2F4D79157A12
:100170003B7B347C237D327E217F508048812B82E3
:10018000408310843A853886308728882089188AE9
:10019000378C3F8D5E903C0711241FBECFE5D2E027
:1001A000DEBFCDBF21E0A2E7B0E001C01D92A537C0
:1001B000B207E1F710E0A0E6B0E0EAE4F3E102C044
:1001C00005900D92A237B107D9F710E0CCECD0E042
:1001D00003C02197FE01B1D8CB3CD107D1F768D637
:1001E000B2C80ECF8FB7F8942BE034E030933E01C5
:1001F00020933D018FBF85B78C7F826085BF8BB711
:1002000080648BBF089587FF0AC08F778330D1F059
:100210008130D1F08230D1F08823D1F08FEF21E00E
:1002200030E0A90102C0440F551F8A95E2F7CA01C8
:100230002FB7F894662371F06230A9F097B3892B39
:1002400087BB0FC083E0EBCF82E0E9CF84E0E7CF4C
:1002500085E0E5CF97B38095982397BB98B3892322
:1002600088BB2FBF089537B3942F9095932397BBE6
:1002700098B3892BF5CF08952FB7F894FC014585E5
:1002800056853AE06095089420F478B3752378BBDE
:1002900004C078B3742B78BB000067D566D565D5EC
:1002A00064D566953A9581F72FBF81E090E0089577
:1002B000DC011F96ED91FC9120A131A182A193A1B7
:1002C0002817390779F0A2A1B3A1AE0FBF1F8C91F7
:1002D00022A133A12F5F3F4F2F71332733A322A3D6
:1002E00090E008958FEF9FEF0895DC011F96ED9148
:1002F000FC9120A131A182A193A12817390739F0DF
:1003000082A193A1E80FF91F808190E008958FEFFB
:100310009FEF0895DC011F96ED91FC9180A191A1C2
:1003200022A133A1821B930B8F7199270895CF923D
:10033000DF92EF92FF920F931F93CF93DF937C0195
:100340008A01EB016B01C40ED51ECC15DD0551F001
:100350006991D701ED91FC910190F081E02DC701E9
:100360000995F3CFC801DF91CF911F910F91FF90B5
:10037000EF90DF90CF9008950F931F934FB7F894AD
:100380008091930090919400A0919500B091960077
:1003900060919300709194008091950090919600E7
:1003A0000091930010919400209195003091960057
:1003B0004FBF42E096958795779567954A95D1F717
:1003C000012F122F232F3327600F711F821F931FBE
:1003D0001F910F9108958AB58F738ABD089581305A
:1003E00080F0833018F0843041F00895813009F4B2
:1003F000F2CF8AB58F7C8ABD08958CB581788064F0
:100400008CBD08950F931F93CF93DF93062F87FF23
:100410001FC08F77833031F1813031F1823041F16B
:10042000811124C085E0C1E0D0E001C0CC0F8A95E5
:10043000EAF71C2F9FB7F89488B3011127C0C09525
:10044000C823C8BB9FBFDF91CF911F910F91089523
:10045000882389F08130A9F010E1843021F7C0E1D0
:10046000D0E00DC083E0DFCF82E0DDCF8FEFDBCFC8
:1004700010E184E0F4CF11E081E0C1E0D0E0AFDF33
:10048000D9CF12E083E0C2E0D0E0F9CF182B18BB3F
:10049000D9CF10928A001092890010928800109291
:1004A0008700109232011092310110928600109252
:1004B000200110921B0110928500089590918A00EE
:1004C0009F5F963008F090E020918900291751F045
:1004D000E92FF0E0E158FF4F808390938A0081E09C
:1004E00090E008958CEF9FEF089562E08CCECF935B
:1004F000DF9380937E0080937D001092860010929F
:100500007C0080918500806C8093850080918800BC
:1005100087FD0DC08091880080FF09C08091870011
:1005200080937B008091850080618093850080911D
:100530009700823039F48BB78F7B8BBF10923E01CE
:1005400010923D01D091980061E08D2F5BDF61E05A
:100550008D2F59DEC091970061E08C2F53DF61E051
:100560008C2F51DE80E190E00197F1F760E08C2F55
:1005700049DF84E790E00197F1F760E08D2F42DFDB
:100580008C2FB3DFC23019F4DF91CF912BCEDF91E6
:10059000CF9108959091890080918A00891791F1F7
:1005A000809188008160809388008091880087FD19
:1005B0002CC08091850087FD28C0109287002FEF06
:1005C0003FEF9F5F963008F090E0E92FF0E0E158B0
:1005D000FF4F2F3F320769F4208130E0909389006C
:1005E00080918A008913EDCF822F81DF81E090E036
:1005F000089580818B3BC1F7809187008F5F809346
:100600008700ECCF8EEF9FEF08958AE79FEF089564
:100610000F931F93CF93DF9310913C0180913B0187
:10062000181B17FD1C5F01E0133064F58091320147
:10063000A09131018A1B87FD885F882319F1809181
:100640003201A817F9F0AF5FA83008F0A0E0A0933E
:100650003101B0E0AA0FBB1FAF5DBE4FCD91DC9161
:1006600011978D919C9192FDBAC02C2FCA3A20F01F
:100670008C2F815F823010F494FF0AC0DD27209711
:1006800009F0AFC0812FDF91CF911F910F91089595
:100690008091200195FF18C0806880932001D0E0F0
:1006A000C0E093FF1EC0FE01EC5BFE4FE4912E13F1
:1006B0000DC0CB5BDE4FFE01C491D0E02097D1F49A
:1006C00080912001D82BDBCF8F77E7CF2296C235E0
:1006D000D10549F7D0E0C0E0F3CF2296CE3DD10559
:1006E000C9F3FE01EA59FF4FE4912E13F6CFC95921
:1006F000DF4FE1CF80912001FE01C430D10508F029
:100700004BC0E45EFE4F87FF04C01082CBEBD0E00D
:1007100025C090819130D1F30083C230D105B1F171
:10072000C330D10551F182E090911B01292F28237C
:1007300079F1209120018095892380931B01206805
:10074000209320018DEEBADE8BEBB8DE80911B0189
:10075000B5DE8BEBB3DE892B09F01CDF8091200125
:100760009E012052310921343105B8F1CB38D10531
:10077000A1F1816080932001A3CF84FF05C08F7E0B
:100780008093200184E0D0CF8061FACF81E0CCCF8C
:10079000892B80931B01D6CF3697E830F10560F4A2
:1007A000E25AFF4FE49187FF05C0E095E823E0930C
:1007B0002001D4CFE82BFBCFFE01B097EB30F10541
:1007C00068F690911B0191FF02C086FFC7CFED5ADA
:1007D000FF4FE491CE2FD0E0C1CF8E7FCBCFC6E0CC
:1007E000D0E0CE0199278B3B910509F41DCF892BD1
:1007F00009F41ACF80913C018F5F84300CF080E0C7
:10080000E82FEE0FFF0BED5CFE4FD183C08380938A
:100810003C011F5F09CFCF92DF92EF92FF920F93BF
:100820001F93CF93DF938091850086FF6FC08091E7
:1008300086008F5F80938600809186008A3048F41E
:10084000823090F560E0813009F446C01092860055
:10085000B1C08B3009F44BC0D8F18C30B9F780911E
:100860007D008E3E69F080917D008E3F49F0809141
:100870007D00809376008091850082608093850062
:10088000809185008F7B809385008091880087FF11
:1008900039C0809188008F7780938800809185008F
:1008A00084FDD4CF77DED2CFC0917E00C1706C2F93
:1008B00080919800A7DD80917C00C80FC0937C00D8
:1008C00080917E0090E09595879580937E0072C020
:1008D00060917C006095617080919800DF91CF916C
:1008E0001F910F91FF90EF90DF90CF908BCD809173
:1008F0009800DF91CF911F910F91FF90EF90DF90C3
:10090000CF90F3CD809188008E7FC6CF80919800E4
:1009100087FF0EC08F77833009F455C0813009F40A
:1009200054C0823009F453C0882309F452C08FEFB9
:1009300096B3C1E0D0E001C0CC0F8A95EAF7C92395
:10094000D1E009F4D0E018DD009177001091780033
:100950002091790030917A006B017C01C01AD10A94
:10096000E20AF30A970186010B3F110521053105C3
:1009700020F01092860010927E00609377007093B2
:1009800078008093790090937A00809186008F5F41
:1009900080938600809186008A30E8F4823060F58A
:1009A000813009F053CF10927C00809185008068DF
:1009B00080938500DF91CF911F910F91FF90EF9071
:1009C000DF90CF90089583E0B3CF82E0B1CF84E091
:1009D000AFCF85E0ADCF8A3011F18B3009F036CF43
:1009E00080917C008D3F40F18EEF81DD8091880009
:1009F0008068809388002ACF80917C00D80FD093A4
:100A00007C0080917E0090E09595879580937E0094
:100A100090E0C11190E880917E00892B56CF8091A3
:100A20007C00817080937C0080917C008D13C2CF0C
:100A30008DEF80937C00BECF80917E008E3F29F0A9
:100A4000909185009D7F909385009091850094FF03
:100A500002C0803F70F09091850092FD90C08E3E64
:100A600009F476C0E8F48A3A09F47EC020F48823B9
:100A700059F186E02BC0803E09F47AC0813EC9F767
:100A80008091850082FD1AC087E080937B00809171
:100A90008500846080938500809185008F7D0CC0E7
:100AA0008C3F09F44DC060F4803F19F781E08093DA
:100AB0007B008091850080628093850080E006C085
:100AC0008E3FA1F18F3FA9F6E4DC8CE081FF05C0E9
:100AD00090917B00915090937B0090917B00191630
:100AE00014F482FF1EC0909132019F5F983008F08D
:100AF00090E0209131012917A1F020917E00E92F8B
:100B0000F0E030E0EE0FFF1FEF5DFE4F31832083FA
:100B10004091850020813181342B31832083909353
:100B20003201807171F180917D005FCF80918500ED
:100B300081FFC4CF8091760080937D0080E1C6CF95
:100B400010927B0010928500109288008EE0BECF3C
:100B50009091850091FF0AC0909176009E3E31F001
:100B600080937D0084E1B2CF10927B0084E0AECF11
:100B700081E080937B008091850088609DCF82E03A
:100B8000A5CF80917B0018160CF460CE8091850073
:100B9000837C8093850010927B00809185008F7705
:100BA000809385007FCEBF92CF92DF92EF92FF922B
:100BB0000F931F93CF93DF93CDB7DEB728970FB670
:100BC000F894DEBF0FBECDBFB19BFECF8E010F5F8D
:100BD0001F4FF80198E041E0282F30E080FF4AC025
:100BE000408335952795822F915031969111F4CFFE
:100BF000C198F1DBC09A8CEE90E00197F1F7C19AB1
:100C000080E890E00197F1F7C19888E390E00197C0
:100C1000F1F7C19A780188E0E80EF11C8AEBC82E42
:100C2000D12CC19AF801B1908F01D5DBF1E0BF1250
:100C300023C0C09AC6010197F1F7C198CCDBC098D8
:100C4000E016F10671F7C19AC6DBC0988CEC97E00C
:100C50000197F1F728960FB6F894DEBF0FBECDBF0F
:100C6000DF91CF911F910F91FF90EF90DF90CF9088
:100C7000BF9008951082B5CFC098DCCF1F920F921D
:100C80000FB60F9211242F933F934F935F936F935F
:100C90007F938F939F93AF93BF93EF93FF93809135
:100CA0003D0190913E01892B29F0E0913D01F091A9
:100CB0003E010995FF91EF91BF91AF919F918F9167
:100CC0007F916F915F914F913F912F910F900FBE48
:100CD0000F901F9018951F920F920FB60F9211242C
:100CE0002F933F934F935F937F938F939F93AF93F4
:100CF000BF93EF93FF9340916F0120E038E035D030
:100D000034D033D032D031D0889476B3742309F004
:100D1000089427953A9509F0F3CF27D026D0E09193
:100D20007201F091730180A191A101968F719927B1
:100D300042A153A18417950739F0A0A1B1A1AE0F2C
:100D4000BF1F2C9391A380A3449AFF91EF91BF9171
:100D5000AF919F918F917F915F914F913F912F9193
:100D60000F900FBE0F901F90189580917401982FCF
:100D70009A95F1F708951F920F920FB60F921124D2
:100D80008F939F93AF93BF93809193009091940022
:100D9000A0919500B09196000196A11DB11D809380
:100DA000930090939400A0939500B0939600BF9108
:100DB000AF919F918F910F900FBE0F901F9018953C
:100DC0001F920F920FB60F921124CF92DF92EF92E3
:100DD000FF920F931F932F933F934F935F936F93C4
:100DE0007F938F939F93AF93BF93EF93FF93209144
:100DF000600081E090E001C0880F2A95EAF786BB89
:100E0000BBDAC0908F00D0909000E0909100F090FD
:100E1000920000918B0010918C0020918D003091F8
:100E20008E006C197D098E099F0960177107820772
:100E3000930758F089B78B7F89BF8FB7F894B8981C
:100E4000C0988FBF8FEF80936000FF91EF91BF91AB
:100E5000AF919F918F917F916F915F914F913F9152
:100E60002F911F910F91FF90EF90DF90CF900F90F7
:100E70000FBE0F901F901895E3E6F1E013821282E7
:100E800088EE93E0A0E0B0E084839583A683B783E7
:100E900085E690E0918380838FE391E0908B878754
:100EA00082E0848781E085878EEF8687118A0895A6
:100EB0008AB583608ABD89B7826089BF83B7826043
:100EC00083BF12BE789486E886B9E9E9F0E08FEF37
:100ED000819391E0E939F907D9F78AE380939C007F
:100EE0008FE580939E008AE280939F0086E3809343
:100EF000A00088E38093A3008DE18093A1004BE4E0
:100F00004093AE003DE43093AF0098E49093B0007E
:100F100050E55093B10083E58093B30021E0209326
:100F2000B4008EE08093B5008FE08093B6008CE132
:100F30008093B70069E36093B80067E26093F400C0
:100F400062E56093B9006FE46093BA005093BB0010
:100F500051E55093BC004093BD004CE44093BE006B
:100F60003093BF0037E43093C0009093C10099E400
:100F70009093C2009AE19093F6009BE19093F70062
:100F80009EE49093C5009AE49093C60097E39093F3
:100F9000C70095E39093C8002093C4002BE02093F2
:100FA000C90022E02093CA00D3E0D093CB00C4E074
:100FB000C093CC0025E02093CD0026E02093CE0006
:100FC00027E02093CF0028E02093D00029E0209351
:100FD000D1002AE02093D20028E22093D30023E31B
:100FE0002093D4002CE02093D50026E420939B008E
:100FF00024E32093D6002BE22093F5009093D700B2
:101000008093D9008EE18093DA0080E38093DB0047
:101010008EE28093DC0080E28093DD0082E18093A9
:10102000DE0081E28093DF0082E28093E00083E2D1
:101030008093E10087E18093E20084E28093E30003
:1010400085E28093E40086E28093E50082E380936A
:10105000E60081E38093E70088E18093E80089E17E
:101060008093E90080E18093EA0083E18093EB00C4
:101070008FE18093EC0084E18093ED0086E1809322
:10108000EE008FE28093EF0081E18093F0008DE22B
:101090008093F10085E18093F2008CE28093F3006D
:1010A0008DE08093F8008BE38093FA008CE38093CB
:1010B000FB008DE38093FC008EE38093FD008FE3C3
:1010C0008093FE0080E48093FF0081E48093000120
:1010D00082E48093010183E48093020184E480939D
:1010E000030185E88093040186E880930501D1D946
:1010F000D0939800C093970084E0F7D983E0F5D9A6
:10110000B99AB89AC19A67D9C09A9CECE92E97E02F
:10111000F92E7EDA882309F483C07ADA811126C099
:1011200010921A0110921901D0E0C0E0CE01992767
:10113000FC013897D7FDE8C0E331F10508F0A1C004
:10114000ED55F74F099468C09CC09BC06EC099C014
:1011500098C097C096C095C070C073C08AC079C04F
:101160007CC07FC082C071C064C087C0E0913B0179
:10117000EF5FE43008F0E0E0E0933B01F0E0EE0FD9
:10118000FF1FED5CFE4FC081D181D0931A01C09347
:101190001901209709F4CACF4E019924B12CA12C32
:1011A000D12C0FE210E00C5F1F4FF80134978591AE
:1011B0009591A591B49160E088169906AA06BB06A0
:1011C00030F06F5F881A990AAA0ABB0AF5CFD110CE
:1011D00007C00197A105B10511F0662351F0D62E85
:1011E000E62FF0E0E25EFF4F649183E691E044D8A1
:1011F0006D2DF80185919591A591B491D62E892BED
:101200008A2B8B2B81F66DE083E691E035D86AE07E
:1012100083E691E031D88ACF80EEC5DC8DE1C3DC76
:10122000B19977CF8BE090E06AC080EEBCDC88E3B8
:10123000F6CF80EEB8DC82E5F2CF80EEB4DC87E456
:10124000EECF80EEB0DC8FE4EACF80EEACDC80E560
:10125000E6CF80EEA8DC81E5E2CF80EEA4DC8BE473
:10126000DECF80EEA0DC8DE4DACF80EE9CDC88E47B
:10127000D6CF80EE98DC89E4D2CF80EE94DC83E593
:10128000CECF87569F4FFC018081C9CF80EE8BDC8B
:101290008DE9C5CF80EE87DC88EBC1CF80EE83DCA3
:1012A00082EDBDCF80EE7FDC87ECB9CF80EE7BDCBA
:1012B0008FECB5CF80EE77DC80EDB1CF80EE73DCC4
:1012C00081EDADCF80EE6FDC8BECA9CF80EE6BDCD7
:1012D0008DECA5CF80EE67DC88ECA1CF80EE63DCDF
:1012E00089EC9DCF80EE5FDC83ED99CF87569F4FD1
:1012F000FC018081806893CFF7013197F1F7019766
:10130000D9F78AEA50DC05CFE331F10578F7E657E3
:10131000F64F0994BBCFEACFE9CFBCCFE7CFE6CFFA
:10132000E5CFE4CFE3CFBECFC1CFD8CFC7CFCACFB1
:10133000CDCFD0CFBFCFB2CFD5CFEE0FFF1F05900F
:0A134000F491E02D0994F894FFCF1A
:10134A00FF000000003C0197018A01580175013B2A
:02135A00010090
:00000001FF
